{
  "_format": "hh-sol-artifact-1",
  "contractName": "CrowdFunding",
  "sourceName": "contracts/CrowdFunding.sol",
  "abi": [
    {
      "inputs": [],
      "stateMutability": "nonpayable",
      "type": "constructor"
    },
    {
      "anonymous": false,
      "inputs": [
        {
          "indexed": false,
          "internalType": "uint256",
          "name": "campaignId",
          "type": "uint256"
        },
        {
          "indexed": false,
          "internalType": "string",
          "name": "title",
          "type": "string"
        },
        {
          "indexed": false,
          "internalType": "string",
          "name": "ipfsHash",
          "type": "string"
        },
        {
          "indexed": false,
          "internalType": "address",
          "name": "benefactor",
          "type": "address"
        },
        {
          "indexed": false,
          "internalType": "uint256",
          "name": "goal",
          "type": "uint256"
        },
        {
          "indexed": false,
          "internalType": "uint256",
          "name": "deadline",
          "type": "uint256"
        }
      ],
      "name": "CampaignCreated",
      "type": "event"
    },
    {
      "anonymous": false,
      "inputs": [
        {
          "indexed": false,
          "internalType": "uint256",
          "name": "campaignId",
          "type": "uint256"
        },
        {
          "indexed": false,
          "internalType": "uint256",
          "name": "amountRaised",
          "type": "uint256"
        },
        {
          "indexed": false,
          "internalType": "bool",
          "name": "goalMet",
          "type": "bool"
        }
      ],
      "name": "CampaignEnded",
      "type": "event"
    },
    {
      "anonymous": false,
      "inputs": [
        {
          "indexed": false,
          "internalType": "uint256",
          "name": "campaignId",
          "type": "uint256"
        },
        {
          "indexed": false,
          "internalType": "address",
          "name": "donor",
          "type": "address"
        },
        {
          "indexed": false,
          "internalType": "uint256",
          "name": "amount",
          "type": "uint256"
        }
      ],
      "name": "DonationReceived",
      "type": "event"
    },
    {
      "inputs": [],
      "name": "campaignCount",
      "outputs": [
        {
          "internalType": "uint256",
          "name": "",
          "type": "uint256"
        }
      ],
      "stateMutability": "view",
      "type": "function"
    },
    {
      "inputs": [
        {
          "internalType": "uint256",
          "name": "",
          "type": "uint256"
        }
      ],
      "name": "campaigns",
      "outputs": [
        {
          "internalType": "string",
          "name": "title",
          "type": "string"
        },
        {
          "internalType": "string",
          "name": "ipfsHash",
          "type": "string"
        },
        {
          "internalType": "address payable",
          "name": "benefactor",
          "type": "address"
        },
        {
          "internalType": "uint256",
          "name": "goal",
          "type": "uint256"
        },
        {
          "internalType": "uint256",
          "name": "deadline",
          "type": "uint256"
        },
        {
          "internalType": "uint256",
          "name": "amountRaised",
          "type": "uint256"
        },
        {
          "internalType": "bool",
          "name": "ended",
          "type": "bool"
        }
      ],
      "stateMutability": "view",
      "type": "function"
    },
    {
      "inputs": [
        {
          "internalType": "string",
          "name": "_title",
          "type": "string"
        },
        {
          "internalType": "string",
          "name": "_ipfsHash",
          "type": "string"
        },
        {
          "internalType": "address payable",
          "name": "_benefactor",
          "type": "address"
        },
        {
          "internalType": "uint256",
          "name": "_goal",
          "type": "uint256"
        },
        {
          "internalType": "uint256",
          "name": "_duration",
          "type": "uint256"
        }
      ],
      "name": "createCampaign",
      "outputs": [],
      "stateMutability": "nonpayable",
      "type": "function"
    },
    {
      "inputs": [
        {
          "internalType": "uint256",
          "name": "_campaignId",
          "type": "uint256"
        }
      ],
      "name": "donateToCampaign",
      "outputs": [],
      "stateMutability": "payable",
      "type": "function"
    },
    {
      "inputs": [
        {
          "internalType": "uint256",
          "name": "_campaignId",
          "type": "uint256"
        }
      ],
      "name": "endCampaign",
      "outputs": [],
      "stateMutability": "nonpayable",
      "type": "function"
    },
    {
      "inputs": [],
      "name": "owner",
      "outputs": [
        {
          "internalType": "address",
          "name": "",
          "type": "address"
        }
      ],
      "stateMutability": "view",
      "type": "function"
    },
    {
      "inputs": [],
      "name": "withdrawLeftoverFunds",
      "outputs": [],
      "stateMutability": "nonpayable",
      "type": "function"
    }
  ],
  "bytecode": "0x60806040526000805534801561001457600080fd5b5033600260006101000a81548173ffffffffffffffffffffffffffffffffffffffff021916908373ffffffffffffffffffffffffffffffffffffffff16021790555061165b806100656000396000f3fe6080604052600436106100705760003560e01c80637274e30d1161004e5780637274e30d146100eb5780638da5cb5b146101165780639304d12414610141578063dd0408ae1461016a57610070565b8063141961bc146100755780632bd71681146100b857806342a4fda8146100cf575b600080fd5b34801561008157600080fd5b5061009c600480360381019061009791906109fa565b610193565b6040516100af9796959493929190610b22565b60405180910390f35b3480156100c457600080fd5b506100cd610312565b005b6100e960048036038101906100e491906109fa565b61040d565b005b3480156100f757600080fd5b50610100610571565b60405161010d9190610b9f565b60405180910390f35b34801561012257600080fd5b5061012b610577565b6040516101389190610bdb565b60405180910390f35b34801561014d57600080fd5b5061016860048036038101906101639190610d57565b61059d565b005b34801561017657600080fd5b50610191600480360381019061018c91906109fa565b610767565b005b60016020528060005260406000206000915090508060000180546101b690610e39565b80601f01602080910402602001604051908101604052809291908181526020018280546101e290610e39565b801561022f5780601f106102045761010080835404028352916020019161022f565b820191906000526020600020905b81548152906001019060200180831161021257829003601f168201915b50505050509080600101805461024490610e39565b80601f016020809104026020016040519081016040528092919081815260200182805461027090610e39565b80156102bd5780601f10610292576101008083540402835291602001916102bd565b820191906000526020600020905b8154815290600101906020018083116102a057829003601f168201915b5050505050908060020160009054906101000a900473ffffffffffffffffffffffffffffffffffffffff16908060030154908060040154908060050154908060060160009054906101000a900460ff16905087565b600260009054906101000a900473ffffffffffffffffffffffffffffffffffffffff1673ffffffffffffffffffffffffffffffffffffffff163373ffffffffffffffffffffffffffffffffffffffff16146103a2576040517f08c379a000000000000000000000000000000000000000000000000000000000815260040161039990610edc565b60405180910390fd5b600260009054906101000a900473ffffffffffffffffffffffffffffffffffffffff1673ffffffffffffffffffffffffffffffffffffffff166108fc479081150290604051600060405180830381858888f1935050505015801561040a573d6000803e3d6000fd5b50565b806000548110610452576040517f08c379a000000000000000000000000000000000000000000000000000000000815260040161044990610f48565b60405180910390fd5b816001600082815260200190815260200160002060060160009054906101000a900460ff16156104b7576040517f08c379a00000000000000000000000000000000000000000000000000000000081526004016104ae90610fb4565b60405180910390fd5b60006001600085815260200190815260200160002090508060040154421115610515576040517f08c379a000000000000000000000000000000000000000000000000000000000815260040161050c90611020565b60405180910390fd5b34816005016000828254610529919061106f565b925050819055507f0b5b4c52969ff7329ecf7ee536409fda87812b15a8622bc6e8cdeab3aee14a26843334604051610563939291906110a3565b60405180910390a150505050565b60005481565b600260009054906101000a900473ffffffffffffffffffffffffffffffffffffffff1681565b600082116105e0576040517f08c379a00000000000000000000000000000000000000000000000000000000081526004016105d790611126565b60405180910390fd5b600081426105ee919061106f565b90506040518060e001604052808781526020018681526020018573ffffffffffffffffffffffffffffffffffffffff16815260200184815260200182815260200160008152602001600015158152506001600080548152602001908152602001600020600082015181600001908161066691906112f2565b50602082015181600101908161067c91906112f2565b5060408201518160020160006101000a81548173ffffffffffffffffffffffffffffffffffffffff021916908373ffffffffffffffffffffffffffffffffffffffff160217905550606082015181600301556080820151816004015560a0820151816005015560c08201518160060160006101000a81548160ff0219169083151502179055509050507f6dc009727ade93d61407adc1ed4b52cfc025b0c4cb8cd23577ea2d402c4838cd600054878787878660405161074096959493929190611419565b60405180910390a160008081548092919061075a90611488565b9190505550505050505050565b8060005481106107ac576040517f08c379a00000000000000000000000000000000000000000000000000000000081526004016107a390610f48565b60405180910390fd5b816001600082815260200190815260200160002060060160009054906101000a900460ff1615610811576040517f08c379a000000000000000000000000000000000000000000000000000000000815260040161080890610fb4565b60405180910390fd5b60006001600085815260200190815260200160002090508060040154421161086e576040517f08c379a00000000000000000000000000000000000000000000000000000000081526004016108659061151c565b60405180910390fd5b60018160060160006101000a81548160ff0219169083151502179055507f2daeb9036523684d0097530a448d8d042ff2da258e6f6b7f30184fa0fd7bcf0a8482600501548360030154846005015410156040516108cd9392919061153c565b60405180910390a160008160020160009054906101000a900473ffffffffffffffffffffffffffffffffffffffff1673ffffffffffffffffffffffffffffffffffffffff168260050154604051610923906115a4565b60006040518083038185875af1925050503d8060008114610960576040519150601f19603f3d011682016040523d82523d6000602084013e610965565b606091505b50509050806109a9576040517f08c379a00000000000000000000000000000000000000000000000000000000081526004016109a090611605565b60405180910390fd5b5050505050565b6000604051905090565b600080fd5b600080fd5b6000819050919050565b6109d7816109c4565b81146109e257600080fd5b50565b6000813590506109f4816109ce565b92915050565b600060208284031215610a1057610a0f6109ba565b5b6000610a1e848285016109e5565b91505092915050565b600081519050919050565b600082825260208201905092915050565b60005b83811015610a61578082015181840152602081019050610a46565b60008484015250505050565b6000601f19601f8301169050919050565b6000610a8982610a27565b610a938185610a32565b9350610aa3818560208601610a43565b610aac81610a6d565b840191505092915050565b600073ffffffffffffffffffffffffffffffffffffffff82169050919050565b6000610ae282610ab7565b9050919050565b610af281610ad7565b82525050565b610b01816109c4565b82525050565b60008115159050919050565b610b1c81610b07565b82525050565b600060e0820190508181036000830152610b3c818a610a7e565b90508181036020830152610b508189610a7e565b9050610b5f6040830188610ae9565b610b6c6060830187610af8565b610b796080830186610af8565b610b8660a0830185610af8565b610b9360c0830184610b13565b98975050505050505050565b6000602082019050610bb46000830184610af8565b92915050565b6000610bc582610ab7565b9050919050565b610bd581610bba565b82525050565b6000602082019050610bf06000830184610bcc565b92915050565b600080fd5b600080fd5b7f4e487b7100000000000000000000000000000000000000000000000000000000600052604160045260246000fd5b610c3882610a6d565b810181811067ffffffffffffffff82111715610c5757610c56610c00565b5b80604052505050565b6000610c6a6109b0565b9050610c768282610c2f565b919050565b600067ffffffffffffffff821115610c9657610c95610c00565b5b610c9f82610a6d565b9050602081019050919050565b82818337600083830152505050565b6000610cce610cc984610c7b565b610c60565b905082815260208101848484011115610cea57610ce9610bfb565b5b610cf5848285610cac565b509392505050565b600082601f830112610d1257610d11610bf6565b5b8135610d22848260208601610cbb565b91505092915050565b610d3481610ad7565b8114610d3f57600080fd5b50565b600081359050610d5181610d2b565b92915050565b600080600080600060a08688031215610d7357610d726109ba565b5b600086013567ffffffffffffffff811115610d9157610d906109bf565b5b610d9d88828901610cfd565b955050602086013567ffffffffffffffff811115610dbe57610dbd6109bf565b5b610dca88828901610cfd565b9450506040610ddb88828901610d42565b9350506060610dec888289016109e5565b9250506080610dfd888289016109e5565b9150509295509295909350565b7f4e487b7100000000000000000000000000000000000000000000000000000000600052602260045260246000fd5b60006002820490506001821680610e5157607f821691505b602082108103610e6457610e63610e0a565b5b50919050565b7f596f7520617265206e6f7420746865206f776e657220736f206765726572656860008201527f657265206a6f6f72000000000000000000000000000000000000000000000000602082015250565b6000610ec6602883610a32565b9150610ed182610e6a565b604082019050919050565b60006020820190508181036000830152610ef581610eb9565b9050919050565b7f43616d706169676e20646f6573206e6f74206578697374000000000000000000600082015250565b6000610f32601783610a32565b9150610f3d82610efc565b602082019050919050565b60006020820190508181036000830152610f6181610f25565b9050919050565b7f43616d706169676e20616c726561647920656e64656400000000000000000000600082015250565b6000610f9e601683610a32565b9150610fa982610f68565b602082019050919050565b60006020820190508181036000830152610fcd81610f91565b9050919050565b7f43616d706169676e20646561646c696e65206861732070617373656400000000600082015250565b600061100a601c83610a32565b915061101582610fd4565b602082019050919050565b6000602082019050818103600083015261103981610ffd565b9050919050565b7f4e487b7100000000000000000000000000000000000000000000000000000000600052601160045260246000fd5b600061107a826109c4565b9150611085836109c4565b925082820190508082111561109d5761109c611040565b5b92915050565b60006060820190506110b86000830186610af8565b6110c56020830185610bcc565b6110d26040830184610af8565b949350505050565b7f476f616c2073686f756c642062652067726561746572207468616e207a65726f600082015250565b6000611110602083610a32565b915061111b826110da565b602082019050919050565b6000602082019050818103600083015261113f81611103565b9050919050565b60008190508160005260206000209050919050565b60006020601f8301049050919050565b600082821b905092915050565b6000600883026111a87fffffffffffffffffffffffffffffffffffffffffffffffffffffffffffffffff8261116b565b6111b2868361116b565b95508019841693508086168417925050509392505050565b6000819050919050565b60006111ef6111ea6111e5846109c4565b6111ca565b6109c4565b9050919050565b6000819050919050565b611209836111d4565b61121d611215826111f6565b848454611178565b825550505050565b600090565b611232611225565b61123d818484611200565b505050565b5b818110156112615761125660008261122a565b600181019050611243565b5050565b601f8211156112a65761127781611146565b6112808461115b565b8101602085101561128f578190505b6112a361129b8561115b565b830182611242565b50505b505050565b600082821c905092915050565b60006112c9600019846008026112ab565b1980831691505092915050565b60006112e283836112b8565b9150826002028217905092915050565b6112fb82610a27565b67ffffffffffffffff81111561131457611313610c00565b5b61131e8254610e39565b611329828285611265565b600060209050601f83116001811461135c576000841561134a578287015190505b61135485826112d6565b8655506113bc565b601f19841661136a86611146565b60005b828110156113925784890151825560018201915060208501945060208101905061136d565b868310156113af57848901516113ab601f8916826112b8565b8355505b6001600288020188555050505b505050505050565b60006113df6113da6113d584610ab7565b6111ca565b610ab7565b9050919050565b60006113f1826113c4565b9050919050565b6000611403826113e6565b9050919050565b611413816113f8565b82525050565b600060c08201905061142e6000830189610af8565b81810360208301526114408188610a7e565b905081810360408301526114548187610a7e565b9050611463606083018661140a565b6114706080830185610af8565b61147d60a0830184610af8565b979650505050505050565b6000611493826109c4565b91507fffffffffffffffffffffffffffffffffffffffffffffffffffffffffffffffff82036114c5576114c4611040565b5b600182019050919050565b7f43616d706169676e206973207374696c6c206f6e676f696e6700000000000000600082015250565b6000611506601983610a32565b9150611511826114d0565b602082019050919050565b60006020820190508181036000830152611535816114f9565b9050919050565b60006060820190506115516000830186610af8565b61155e6020830185610af8565b61156b6040830184610b13565b949350505050565b600081905092915050565b50565b600061158e600083611573565b91506115998261157e565b600082019050919050565b60006115af82611581565b9150819050919050565b7f5472616e7366657220746f2062656e65666163746f72206661696c6564000000600082015250565b60006115ef601d83610a32565b91506115fa826115b9565b602082019050919050565b6000602082019050818103600083015261161e816115e2565b905091905056fea2646970667358221220409a4f3cdf5d534ffb08bd885672c8fc1ea92f245685aaf5896be141e969366c64736f6c63430008180033",
  "linkReferences": {},
  "deployedLinkReferences": {}
}